:100000000C9469000C9491000C9491000C94910054
:100010000C9491000C9491000C9491000C9491001C
:100020000C9491000C9491000C9491000C9491000C
:100030000C9491000C9491000C9491000C949100FC
:100040000C94D2080C9491000C94DE070C941008C8
:100050000C9491000C9491000C9491000C949100DC
:100060000C94B1220C949100B10EB10EB10EA40EFD
:10007000B30EA60EA60EA60EA80EA60E0000000831
:10008000000201000003040700000000000000005F
:10009000010204081020408001020408102001021F
:1000A00004081020040404040404040402020202EC
:1000B00002020303030303030000000025002800DD
:1000C0002B0000000000240027002A002906400819
:1000D000CA2111241FBECFEFD8E0DEBFCDBF12E092
:1000E000A0E0B1E0E8EFFAE402C005900D92A03F75
:1000F000B107D9F725E0A0EFB2E001C01D92A53508
:10010000B207E1F710E0C9E6D0E004C02197FE0194
:100110000E940024C636D107C9F70E946E080C94CD
:100120007A250C94000080E00895089580E00895F9
:1001300081E00895860F911D860F911DFC01568761
:10014000458781E00895CF93DF93EC018C819D81F9
:10015000DC01ED91FC910480F581E02D6E81099523
:100160001F86188A81E08A8B1E821B8A1C8A1D8A40
:100170001E8A1F8A80E0DF91CF910895FC0186815D
:10018000089581E0633009F080E0089581E06230F5
:1001900009F080E00895860F911D860F911DFC01E6
:1001A000858596850895FC0187890895EF92FF92D1
:1001B000CF93DF93DC01E70152968C915297823006
:1001C00049F11F966C931F9750964C9350979B81C3
:1001D00093709330F9F49A8197FF1CC09E815896D2
:1001E0002C915897291718F458969C935897E82FF4
:1001F000F0E09F01220F331FE20FF31FEA0FFB1FF6
:100200009A819F7097839C81908794E091878F5FFC
:1002100052968C93DF91CF91FF90EF900895EF92DB
:10022000FF920F9302970E94D6000F91FF90EF90DC
:1002300008950895CF92DF92EF92FF920F931F934C
:10024000CF93DF93CDB7DEB762970FB6F894DEBFDA
:100250000FBECDBFDC0157962C91222381F06C019B
:100260000E941C09F6010389148925893689DC015D
:10027000CB01801B910BA20BB30BB7FF02C0F12C7B
:100280003AC0838590E09A8B898BE12C8E010F5FB9
:100290001F4F9E012F5E3F4F42856681848195816D
:1002A0000E94441BF82E811118C029893A892330F5
:1002B000310598F0D6011D968D919C911E9700975F
:1002C00061F0DC01ED91FC910190F081E02D8E0157
:1002D0000F5F1F4F40E0B60109950E941C09F6010F
:1002E000208DDC01CB01820F911DA11DB11D838BDF
:1002F000948BA58BB68B8F2D62960FB6F894DEBFCC
:100300000FBECDBFDF91CF911F910F91FF90EF9066
:10031000DF90CF9008952F923F924F925F926F920D
:100320007F928F929F92AF92BF92CF92DF92EF9285
:10033000FF920F931F93CF93DF93CDB7DEB7EB9769
:100340000FB6F894DEBF0FBECDBFDC0116965C90F1
:10035000511019C1422E242E362E7C01FC01A4809E
:10036000B580108ED501ED91FC910190F081E02DCA
:1003700060E0C50109956C01009719F446ED542E13
:100380000FC1FC01808091808114910409F4FEC0AA
:100390003701F7E06F0E711CDC0111967C926E92B2
:1003A00014964C928E01065D1F4F28E030E040E02D
:1003B00060E0F701848195810E940619182F811150
:1003C000EBC01AA5D6018D929C92D501ED91FC91BE
:1003D0000280F381E02D222D40E0632DC5010995B7
:1003E000F7018683882309F4D4C099A99087282F20
:1003F00040E060E0848195810E94B119982ED5017A
:10040000ED91FC91D60114961C92882361F0048032
:10041000F581E02DD70116966C91C5010995F7017C
:100420001682592CBDC00190F081E02DD70116969F
:100430006C91C5010995009709F4A0CF212F1331C4
:1004400008F022E1FC01448221110FC03BAC412C99
:1004500033E9832E31E0932E5701F2E0AF0EB11C49
:100460006E0181E1C80ED11C38C030E08E01065DFE
:100470001F4F40E0D70116966C91169714968D91F8
:100480009C9115970E940619182F811172C0DECF1A
:100490009A828982BC82AB821E86188A1F8619A224
:1004A0001AA21BA219A6DF82CE82D986C8868D81A8
:1004B0008B878A87DD86CC868E010F5F1F4F242DA8
:1004C00040E0F7016681848195810E945419D7012B
:1004D00052968C91823019F043944310D9CFF70192
:1004E0008289823009F044C0930142E066818481B0
:1004F00095810E94211468EE73E080E090E00E94F4
:100500004D09D7011F962C911F9740E016966C91CC
:10051000169714968D919C9115970E941F1B182F6A
:10052000811127C068EE73E080E090E00E944D09E1
:10053000F701418D60E0C7010E94E71C182F81116F
:1005400018C020E040E060E0C7010E94BD1C89E9BE
:1005500091E09A838983AE014F5F5F4F60E070E066
:10056000C7010E947A1C81E0D70157968C9318C06E
:1005700011EDD701ED91FC910480F581E02DC701CB
:100580000995512E0DC029ED522E0AC097ED592E16
:1005900007C084ED582E04C0F60191828082E9CF15
:1005A000852DEB960FB6F894DEBF0FBECDBFDF9161
:1005B000CF911F910F91FF90EF90DF90CF90BF9060
:1005C000AF909F908F907F906F905F904F903F90F3
:1005D0002F9008953F924F925F926F927F928F92E9
:1005E0009F92AF92BF92CF92DF92EF92FF920F93C2
:1005F0001F93CF93DF9300D000D0CDB7DEB76C014F
:100600007C836B835A8349834C0180E1880E911C63
:100610005601A7E0AA0EB11C11E084E0482E360175
:10062000B2E16B0E711C93E0392E22E0522E8B81C9
:100630009C81892B09F4FBC0F60180A1823059F11D
:1006400028F4882341F0813071F0F1CF833039F103
:100650008430C1F1ECCF5482858196819087878365
:100660005286518610A3AE014D5F5F4FBE016F5F92
:100670007F4FC5010E949312882309F4D8C0D60188
:100680001596ED91FC911697808191968C93919798
:10069000818192968C93F6017682658230A2D60192
:1006A00092968C919297843011F493961C92F60155
:1006B00081A1825084832581368130872783828778
:1006C000818740A2D60192968C918430B1F085301A
:1006D00009F442C0823009F06EC0AE014D5F5F4F39
:1006E000BE016F5F7F4FC5010E949312882309F4FA
:1006F0009EC0F601858984A392C0AE014D5F5F4F15
:10070000BE016F5F7F4FC5010E949312882309F4D9
:100710008EC0D60155968C915597833009F07FC0D5
:1007200056968C915697813009F079C098969C9195
:10073000989757968C91992321F0882309F46FC0DC
:1007400003C0823009F06BC0F60113A3928996A30F
:10075000938997A385A363C0AE014D5F5F4FBE0130
:100760006F5F7F4FC5010E949312882309F45FC019
:10077000D60193968C919397882309F450C01296D2
:100780008D919C911397009709F449C0DC01ED917C
:10079000FC910190F081E02D7401D60195960C91A9
:1007A000959797962C91979796964C9196979496A5
:1007B0006C91099534C0F6018585882319F0813044
:1007C00039F028C081A190E0029797878687158726
:1007D0002B813C8189819A81782F692FF60146858A
:1007E00057854115510581F001962115310529F4F0
:1007F00079836A831C821B820DC04150510957873F
:10080000468721503109E8CF9A8389833C832B8323
:10081000F6011586F60186859785892B41F4D60168
:1008200016969C928E92159790961C9200CF0F90E0
:100830000F900F900F90DF91CF911F910F91FF902C
:10084000EF90DF90CF90BF90AF909F908F907F9070
:100850006F905F904F903F9008959FB7F8942091CC
:10086000860480918404213019F48DBB9FBF0895C4
:100870008FBF0895CF93DF93CDB7DEB72A970FB61A
:10088000F894DEBF0FBECDBF40E250E068EA73E0EF
:10089000CE0101960E94C90B8AE0FE013196A8E9BB
:1008A000B3E001900D928A95E1F742EA53E066E0E9
:1008B00071E088E993E00E94F8118093A7038823F0
:1008C00019F168EA73E088EC93E00E94A90A80932A
:1008D000A703811134C06DE271E08EED93E00E94B8
:1008E000C00864E670E080E090E00E944D09E0916D
:1008F000DC03F091DD032A960FB6F894DEBF0FBE3D
:10090000CDBFDF91CF91099467E471E08EED93E064
:100910000E94C0086091A0037091A1036115710548
:1009200011F466E271E08EED93E02A960FB6F8942A
:10093000DEBF0FBECDBFDF91CF910C94C0082A96C9
:100940000FB6F894DEBF0FBECDBFDF91CF910895F3
:10095000E2EAF3E01482138281E0808381E090E098
:10096000928381830C943A04E2EAF3E012821182CA
:100970001482138281E080830C943A04E2EAF3E06B
:100980001482138282E0808381E090E092838183ED
:100990000C943A04E2EAF3E0128211821482138288
:1009A00082E080830C943A04E2EAF3E0108214823D
:1009B000138281E090E0928381830C943A04E2EA0E
:1009C000F3E0108212821182148213820C943A0492
:1009D000E2EAF3E083E08083DB0111968C911197CA
:1009E000082E000C990B9283818312968C91082E0D
:1009F000000C990B948383830C943A042091860411
:100A0000222399F04FB7F89420918604213059F4AD
:100A10002DB3209384043DB3209185042095232396
:100A20002DBB4FBF02C0409384048CBD9DBD089573
:100A300081E293E00E947D1B8091D8039091D903BD
:100A4000892B11F061E001C060E088E00C94290A74
:100A50002A9A0895CF93C82F80E591E00E94FE0462
:100A60002A98CEBD00000DB407FEFDCF8EB51EBC8A
:100A700000000DB407FEFDCFCEB50E942805809181
:100A8000860481110E942D048C2FCF910895CF935D
:100A9000DF93C82FD62F80E591E00E94FE042A98AC
:100AA000C260CEBD0DB407FEFDCF8EB5DEBD0DB468
:100AB00007FEFDCF8EB50E9428058091860488230D
:100AC00021F0DF91CF910C942D04DF91CF91089507
:100AD00088EF0E942A05807C8034A1F018F48823D6
:100AE00001F10895803819F0803CB9F0089588ED3F
:100AF0000E942A0581FD0BC069EC88ED0E94470524
:100B000082E00CC088ED0E942A0581FDF5CF6BECD8
:100B100088ED0E94470583E001C081E08093F002E8
:100B2000089561ED88ED0E9447051092F002089546
:100B30000F931F93CF93DF938C01229A0E94280575
:100B40000E94FA11229A0E942805219868E188E8FB
:100B50000E94470560E288E70E94470560E088E759
:100B60000E944705C0E0D0E088E60E942A05219651
:100B700080FD06C0CF3F8FEFD807B1F78FEF1DC0C4
:100B800061EC88ED0E94470560E680ED0E94470514
:100B900064E088EE0E94470588EE0E942A0582FFE5
:100BA000FBCFC8010E94680560E288EC0E944705FF
:100BB00061E080E80E94470580E0DF91CF911F91BE
:100BC0000F9108950F9326E040E052EC61E070E051
:100BD0008EED93E00E947E076AE571E08EED93E072
:100BE0000E94C00881E293E00E9498058F3F31F493
:100BF00060E671E08EED93E00E94C00868EC70E062
:100C000080E090E00E944D0981EF92E09093040310
:100C10008093030368E070E08EE894E00E94C321B3
:100C200068E876E08EE894E00E94C52100E020E0CC
:100C30004AE050E060E270E088EC93E00E94690ACC
:100C400061E088E00E94ED0960E088E00F910C947B
:100C5000290A81E293E00E94D41361E273E080E10B
:100C600093E00E946B1F81E293E09093FB028093DC
:100C7000FA028FE991E09093F7028093F6028DEBF0
:100C800091E09093F9028093F80210920903109278
:100C90000A0310920B0310920C0310920D03109292
:100CA0000F031092FD0288E08093FE028CE3809394
:100CB000FF02109200031092010384E0809302036C
:100CC00081E08093080310920703109205031092AD
:100CD000040310920303E7E7F3E080E090E0219142
:100CE0003191232B51F4880F991FFC01E958FC4FD7
:100CF00086EF92E09183808304C001968031910554
:100D000071F783EC91E09093F2028093F1020895E1
:100D1000CF93DF93CDB7DEB7A0970FB6F894DEBFC1
:100D20000FBECDBF8091D8039091D903892B89F054
:100D3000BE016F5F7F4F88EC93E00E94F80A40E2AB
:100D400050E0BE016F5F7F4F8EE894E00E943D212E
:100D500006C063E771E08EED93E00E94C008A096A4
:100D60000FB6F894DEBF0FBECDBFDF91CF910895CF
:100D7000FC01918D228D892F90E0805C9F4F821B1A
:100D800091098F7399270895FC01918D828D981791
:100D900031F0828DE80FF11D858D90E008958FEF81
:100DA0009FEF0895FC01918D828D981761F0828DDF
:100DB000DF01A80FB11D5D968C91928D9F5F9F738F
:100DC000928F90E008958FEF9FEF089586E398E06B
:100DD000892B49F080E090E0892B29F00E943608A9
:100DE00081110C9400000895FC01848DDF01A80F8F
:100DF000B11DA35ABF4F2C91848D90E001968F7343
:100E00009927848FA689B7892C93A089B1898C9161
:100E100080648C93938D848D981306C00288F38927
:100E2000E02D80818F7D80830895EF92FF920F9354
:100E30001F93CF93DF93EC0181E0888F9B8D8C8D86
:100E4000981305C0E889F989808185FD24C0F62EB4
:100E50000B8D10E00F5F1F4F0F731127E02E8C8D4D
:100E6000E8120CC00FB607FCFACFE889F989808137
:100E700085FFF5CFCE010E94F406F1CF8B8DFE01E8
:100E8000E80FF11DE35AFF4FF0820B8FEA89FB89CF
:100E90008081806207C0EE89FF896083E889F989D3
:100EA00080818064808381E090E0DF91CF911F9109
:100EB0000F91FF90EF900895CF93DF93EC01888D11
:100EC0008823C9F0EA89FB89808185FD05C0A8894E
:100ED000B9898C9186FD0FC00FB607FCF5CF8081D4
:100EE00085FFF2CFA889B9898C9185FFEDCFCE011E
:100EF0000E94F406E7CFDF91CF910895CF92DF9261
:100F0000EF92FF921F93CF93DF93EC016A017B0175
:100F1000122F60E874E88EE190E0A70196010E942C
:100F2000DE23DA01C9010197A109B109B695A79598
:100F3000979587959C01E889F98982E0808321153E
:100F400080E13807A8F0E889F989108260E472E44A
:100F50008FE090E0A70196010E94DE23DA01C9012B
:100F60000197A109B109B695A795979587959C0119
:100F7000EC85FD853083EE85FF852083188EEC8916
:100F8000FD891083EA89FB89808180618083EA89F9
:100F9000FB89808188608083EA89FB898081806801
:100FA0008083EA89FB8980818F7D8083DF91CF9167
:100FB0001F91FF90EF90DF90CF9008951F920F92B6
:100FC0000FB60F9211242F938F939F93EF93FF935C
:100FD000E091EE03F091EF038081E091F403F09152
:100FE000F50382FD12C090818091F7038F5F8F73AC
:100FF0002091F803821751F0E091F703F0E0E252FC
:10100000FC4F958F8093F70301C08081FF91EF9192
:101010009F918F912F910F900FBE0F901F90189559
:101020001F920F920FB60F9211242F933F934F935D
:101030005F936F937F938F939F93AF93BF93EF9340
:10104000FF938EED93E00E94F406FF91EF91BF9124
:10105000AF919F918F917F916F915F914F913F9150
:101060002F910F900FBE0F901F9018958EED93E06B
:101070000E94B80621E0892B09F420E0822F089510
:10108000EEEDF3E01382128288EE93E0A0E0B0E090
:1010900084839583A683B78387ED91E091838083D2
:1010A00085EC90E09587848784EC90E0978786872D
:1010B00080EC90E0918B808B81EC90E0938B828B25
:1010C00082EC90E0958B848B86EC90E0978B868BFE
:1010D000118E128E138E148E089508950E94890920
:1010E0000E946D080E94E205C6EED6E00E94180537
:1010F0002097E1F30E94E606F9CFCF92DF92EF92BC
:10110000FF920F931F93CF93DF936C017A018B01B2
:10111000C0E0D0E0CE15DF0581F0D8016D918D01E2
:10112000D601ED91FC910190F081E02DC601099569
:10113000892B11F02196EECF7E01C701DF91CF916F
:101140001F910F91FF90EF90DF90CF900895611560
:10115000710579F0FB0101900020E9F73197AF01AB
:10116000461B570BDC01ED91FC910280F381E02DD1
:10117000099480E090E0089563EE71E00C94A70874
:101180000F931F93CF93DF93EC010E94A7088C016C
:10119000CE010E94BC08800F911FDF91CF911F915B
:1011A0000F9108951F920F920FB60F9211242F9353
:1011B0003F938F939F93AF93BF9380917C049091C3
:1011C0007D04A0917E04B0917F0430917B0426E0E1
:1011D000230F2D3720F40296A11DB11D05C029E86B
:1011E000230F0396A11DB11D20937B0480937C04E3
:1011F00090937D04A0937E04B0937F04809180043B
:1012000090918104A0918204B09183040196A11D64
:10121000B11D8093800490938104A0938204B093C5
:101220008304BF91AF919F918F913F912F910F9028
:101230000FBE0F901F9018952FB7F89460917C0403
:1012400070917D0480917E0490917F042FBF08955A
:101250003FB7F8948091800490918104A09182041A
:10126000B091830426B5A89B05C02F3F19F00196C5
:10127000A11DB11D3FBFBA2FA92F982F8827820F1C
:10128000911DA11DB11DBC01CD0143E0660F771F6B
:10129000881F991F4A95D1F708958F929F92AF9218
:1012A000BF92CF92DF92EF92FF926B017C010E947E
:1012B00028094B015C01C114D104E104F10401F1DE
:1012C0000E94CE210E942809DC01CB0188199909CE
:1012D000AA09BB09883E9340A105B10560F321E04E
:1012E000C21AD108E108F10888EE880E83E0981E42
:1012F000A11CB11CC114D104E104F10419F7DBCF26
:10130000FF90EF90DF90CF90BF90AF909F908F9025
:101310000895789484B5826084BD84B5816084BD6D
:1013200085B5826085BD85B5816085BDEEE6F0E05E
:10133000808181608083E1E8F0E0108280818260BA
:101340008083808181608083E0E8F0E0808181603B
:101350008083E1EBF0E0808184608083E0EBF0E06B
:10136000808181608083EAE7F0E08081846080830F
:1013700080818260808380818E7F8083808180688D
:1013800080831092C1000895833081F028F4813069
:1013900099F08230A1F008958730A9F08830B9F033
:1013A0008430D1F4809180008F7D03C080918000D3
:1013B0008F7780938000089584B58F7702C084B5BD
:1013C0008F7D84BD08958091B0008F7703C0809198
:1013D000B0008F7D8093B0000895CF93DF9390E0AD
:1013E000FC01E057FF4F2491FC01EC55FF4F849125
:1013F000882361F190E0880F991FFC01EE53FF4FA5
:10140000C591D491FC01E854FF4FA591B4916111AD
:1014100009C09FB7F8948881209582238883EC9136
:101420002E230BC0623061F49FB7F8948881322F6D
:10143000309583238883EC912E2B2C939FBF06C07D
:101440008FB7F894E8812E2B28838FBFDF91CF913F
:1014500008951F93CF93DF93282F30E0F901E458CC
:10146000FF4F8491F901E057FF4FD491F901EC55FA
:10147000FF4FC491CC23C1F0162F81110E94C409E3
:10148000EC2FF0E0EE0FFF1FE854FF4FA591B49151
:101490009FB7F894111104C08C91D095D82302C045
:1014A000EC91DE2BDC939FBFDF91CF911F910895CC
:1014B000CF93DF93EC018A899B89853A9A4521F481
:1014C0008A859B850E94E1241B8A1A8ADF91CF912D
:1014D00008958F929F92AF92BF92EF92FF920F93D7
:1014E000CF93DF93EC01469F7001479FF00C569F0E
:1014F000F00C11244701A12CB12C5B834A837D831E
:101500006C83288309830E94580AC7010E944924DA
:101510009B878A87009729F41E821F821886198666
:101520000EC08E829F82A886B98625EA3AE53B8B5B
:101530002A8B1D861C861F861E86198A188ADF91B3
:10154000CF910F91FF90EF90BF90AF909F908F90B1
:101550000895CF93DF93EC019981911107C04A81DF
:101560005B812889398942175307F1F14C815D81EC
:101570002C853D85429FC001439F900D529F900D49
:1015800011242A853B85820F931F0E946A258C8532
:101590009D852A813B81A9014150510984179507F6
:1015A00020F401969D878C8702C01D861C86888941
:1015B00099892817390721F00196998B888B13C0D8
:1015C0009981992381F0888181110EC02E853F85F4
:1015D0002417350728F42F5F3F4F3F872E8704C01D
:1015E0001F861E8601C091E0892FDF91CF9108955B
:1015F000CF93DF93FC01CB0120893189232B09F4A0
:101600004AC0208121111EC046855785648175819D
:10161000469F9001479F300D569F300D11246285E3
:101620007385260F371F62817381615071094617D8
:10163000570728F44F5F5F4F578746871FC01786AD
:1016400016861CC0213039F52485358521153105D4
:1016500011F4228133812150310935872487648137
:10166000758144855585649F9001659F300D749FF9
:10167000300D112462857385260F371FEF014481D9
:101680005581B9010E946A25888999890197998BAA
:10169000888B81E001C080E0DF91CF910895FC014B
:1016A000A281B3819D01240F351F33832283FB0167
:1016B000460F571FE417F50719F081918D93FACF64
:1016C00081E00895CF93DF93CDB7DEB72C970FB6A7
:1016D000F894DEBF0FBECDBFFC019181892F8073CE
:1016E00009F44DC02381DB01A20FB11D27FDBA957E
:1016F000803211F0803319F481E09C9118C0803160
:1017000031F4222321F09C9181E0892739C0892F6F
:10171000807C91F49F70953011F0963021F481E037
:10172000FB01908104C0993029F481E094819923D0
:1017300039F125C0973021F09481262FFB0119C083
:10174000AB0166817781CE0101960E94CF2188236B
:10175000A1F069857A858B819C810E94620B882328
:1017600079F0CE0101960E94EF21F1CF8191811194
:1017700006C08E2F821B8917C8F381E001C080E06C
:101780002C960FB6F894DEBF0FBECDBFDF91CF9180
:101790000895FC018FE49BE09183808373836283CF
:1017A000558344831782168211861086CF010895CF
:1017B0000F931F93CF93DF93EC018A01E881F981A6
:1017C000309709F18E819F81840F951F2C813D8177
:1017D0002817390750F488859985009711F482EF0E
:1017E00091E09987888780E015C0CE010995811125
:1017F0000AC0288539852115310511F42EEF31E015
:101800003987288707C08E819F81080F191F1F8382
:101810000E8381E0DF91CF911F910F9108953F9248
:101820004F925F926F927F928F929F92AF92BF92F0
:10183000CF92DF92EF92FF920F931F93CF93DF939C
:10184000CDB7DEB72A970FB6F894DEBF0FBECDBF77
:101850006C01722E332EF42FE52F2B019801472DAA
:10186000532D6F2F7E2FC201AFE70E943D2409F058
:1018700020F4098341E050E02FC0CE0101965C01C5
:10188000E12CF12C602E802F8068D5018D935D01B5
:10189000202F312F472D532D6F2F7E2FC20107E0B0
:1018A0000E9421248901742E352EF62FE72F2C015A
:1018B0004701BFEF8B1A9B0AA0E00E943D2411F064
:1018C0007401E0CF862D8F77E1E0F0E0EC0FFD1F93
:1018D000EE0DFF1D8083A401BE016F5F7F4FC60127
:1018E0000E94D80B2A960FB6F894DEBF0FBECDBF6C
:1018F000DF91CF911F910F91FF90EF90DF90CF90EC
:10190000BF90AF909F908F907F906F905F904F901F
:101910003F9008958F929F92AF92BF92CF92DF92A5
:10192000EF92FF920F931F93FA01DB0114962C9113
:10193000213019F48080912C04C0223029F4808059
:101940009180A12CB12C06C0243041F4808091807C
:10195000A280B380C12CD12C76011AC0283049F462
:1019600080809180A280B380C480D580E680F7809B
:101970000FC0FC01208531852115310511F427E0C8
:1019800032E0DC0119963C932E93189780E006C054
:1019900084019501A601B7010E940F0C1F910F91C0
:1019A000FF90EF90DF90CF90BF90AF909F908F907F
:1019B00008950F931F93CF93FA01DB0114962C9196
:1019C000213059F40081102F110F110B212F312FCD
:1019D000C12FB12FA12F712F38C0223059F411819E
:1019E0000081212F220F220B322FC22FB22FA22FC4
:1019F000722F2BC0243079F4408151816281738130
:101A00008A019B01770F440B542FBA01C42FB42FC6
:101A1000A42F742F1AC0283049F40081118122812B
:101A20003381C481B581A68177810FC0FC012085F7
:101A300031852115310511F427E032E0DC011996DA
:101A40003C932E93189780E005C04C2F5B2F6A2F94
:101A50000E940F0CCF911F910F910895DF92EF928A
:101A6000FF920F931F93CF93DF93FC01D22EE32EAF
:101A7000F42ED52FC62FB72F98014D2D5E2D6F2D2B
:101A80007D2F8C2F9B2FA0E00E943D2464F401E069
:101A90000E9406242095309540955095609570954C
:101AA000809590950AC098014D2D5E2D6F2D7D2F4C
:101AB0008C2F9B2F01E00E94062489019A01AB0123
:101AC000BC01CF010E940F0CDF91CF911F910F91AC
:101AD000FF90EF90DF9008950F931F93CF93FA013B
:101AE000DB0114962C91213059F40081102F110F35
:101AF000110B212F312FC12FB12FA12F712F38C0E2
:101B0000223059F411810081212F220F220B322F14
:101B1000C22FB22FA22F722F2BC0243079F4408114
:101B20005181628173818A019B01770F440B542F8D
:101B3000BA01C42FB42FA42F742F1AC0283049F42F
:101B40000081118122813381C481B581A681778191
:101B50000FC0FC01208531852115310511F427E0E6
:101B600032E0DC0119963C932E93189780E005C073
:101B70004C2F5B2F6A2F0E942E0DCF911F910F913A
:101B80000895CF93DF9300D000D0CDB7DEB7FB012F
:101B9000508141813281238159834A833B832C8345
:101BA00044E050E0BE016F5F7F4F0E94D80B0F9062
:101BB0000F900F900F90DF91CF910895BA010C9480
:101BC000C10D9F92AF92BF92CF92DF92EF92FF92A0
:101BD0000F931F93CF93DF93CDB7DEB728970FB640
:101BE000F894DEBF0FBECDBF5C01DB01EC91119616
:101BF0009C9011971296CC9012971396DC901397A5
:101C00001496EC9014971596FC90159716961C91C7
:101C100016971796FC91E9832E2F392DA601B7014F
:101C2000812F9F2F08E00E9421242A832E2F392DF7
:101C3000A601B701812F9F2F00E10E9421242B8351
:101C40002E2F392DA601B701812F9F2F08E10E9469
:101C500021242C832E2F392DA601B701812F9F2FF0
:101C600000E20E9421242D832E2F392DA601B701D9
:101C7000812F9F2F08E20E9421242E832E2F392DA1
:101C8000A601B701812F9F2F00E30E9421242F83FB
:101C90002E2F392DA601B701812F9F2F08E30E9417
:101CA0002124288748E050E0BE016F5F7F4FC501C7
:101CB0000E94D80B28960FB6F894DEBF0FBECDBF9A
:101CC000DF91CF911F910F91FF90EF90DF90CF9018
:101CD000BF90AF909F900895BA010C94E10DDF92F0
:101CE000EF92FF920F931F93CF93DF937C01D62E39
:101CF000DA01C901AD0160E070E080E090E003E04E
:101D00000E940624022F0D29132F9A01AB01BC015A
:101D1000C7010E940F0CDF91CF911F910F91FF908F
:101D2000EF90DF900895CF93DF93DC01EB014981C1
:101D3000E42FEF704E2F50E04A30510548F4FA017D
:101D4000EC5CFF4F0C94002465E00EC062E00CC018
:101D500018968D919C911997009779F489E192E0FA
:101D60000CC060E001C061E0288130E040E050E05C
:101D7000CD01DF91CF910C946F0E19969C938E93A9
:101D8000189780E0DF91CF9108952F923F924F9264
:101D90005F926F927F928F929F92AF92BF92CF92FB
:101DA000DF92EF92FF920F931F93CF93DF93CDB704
:101DB000DEB72B970FB6F894DEBF0FBECDBF7C0108
:101DC0006B015A01DB0111968C91982F907C903415
:101DD00009F428C1903811F091113DC1E82FEF703E
:101DE000F0E0EE0FFF1FE555FD4F40805180F601FA
:101DF0009381992331F0F501E90FF11D97FDFA95D3
:101E00000EC08073803139F4B501C6010E94620BA7
:101E100091E0892701C081E08B87FE013B96D601C6
:101E200011968C91282F207C203849F4D501AD9053
:101E3000BC9091E0A114B10409F490E09B87982F25
:101E400090739031B9F018F4992339F0DEC09032D4
:101E5000B1F0903309F4C8C0D8C0A114B10409F09E
:101E6000C8C0F70180859185009709F0FBC08CE21E
:101E700092E0F8C08081882309F4FAC0BAC060807B
:101E8000712C6114710409F4F3C0203881F0D6017B
:101E900015962C9130E02615370548F4F70180851A
:101EA0009185009709F0DEC083E492E0DBC08F707B
:101EB000853008F06EC0F601208130E040E050E04F
:101EC00062E0C7010E946F0E882309F4D3C0D601D7
:101ED00011968C918F70833031F44301880C991CDA
:101EE000880C991C28C0843039F4430183E0880CA5
:101EF000991C8A95E1F71FC0FE0131961F018AE007
:101F0000DF011D928A95E9F7450100E010E0A40188
:101F1000B601C101F2010995882309F4ABC0D601CD
:101F200014968C91880E911C0F5F1F4F0615170594
:101F300070F38F809884840120E030E040E050E02E
:101F400060E070E0C7010E940F0C882309F492C082
:101F5000F70180819181892B39F4A40160E070E060
:101F6000C7010E94D80B87C000E010E0A501B601B0
:101F7000C701F2010995882309F47CC0D6011496A3
:101F80008C91A80EB11C0F5F1F4F0615170570F33B
:101F90006FC000E010E0B601C7010E94930E8823D5
:101FA00009F468C0F6018181982F907C9038D1F4B3
:101FB0008F7090E005970297A8F4D5014D915C9140
:101FC000B601C701F2010995882309F453C0D6016F
:101FD00014968C91A80EB11C0F5F1F4F06151705A4
:101FE000D0F246C0A501ECCF9081D6018C91981318
:101FF0003FC0B601C7010E94930E8823D9F1A50105
:10200000B601C701F201099536C0D70118968D9126
:102010009C911997009711F489E192E0F70191875B
:10202000808728C04E5F5F4FD501ED91FC913097BE
:10203000F9F0C701099581111BC0F7012085318591
:102040002115310511F42BE532E0D70119963C93A7
:102050002E93189710C0F70180859185009711F491
:1020600089E192E0D70119969C938E93189702C04C
:1020700081E001C080E02B960FB6F894DEBF0FBE62
:10208000CDBFDF91CF911F910F91FF90EF90DF9027
:10209000CF90BF90AF909F908F907F906F905F9008
:1020A0004F903F902F900895EF92FF920F931F93C0
:1020B000CF93DF93CDB7DEB72C970FB6F894DEBF82
:1020C0000FBECDBF7C01CE0101960E94CF218111B0
:1020D00002C081E041C06B817C81FB0181818F70F6
:1020E00049855A85883071F5FA0100811181011501
:1020F000110569F1F801A081B1811296ED91FC9171
:102100001397309721F0B801C701099513C01496B1
:102110006D917C911597FB018181807C803821F441
:10212000A8014E5F5F4F03C0F80142815381C70190
:102130000E94C50E811102C080E00EC0F80104812A
:102140001581D5CFC7010E94C50E8823A9F3CE0102
:1021500001960E94EF21BBCF2C960FB6F894DEBFFC
:102160000FBECDBFDF91CF911F910F91FF90EF90E8
:102170000895CF92DF92EF92FF920F931F93CF9328
:10218000DF93EC016B017A018A0120E030E040E04E
:1021900050E060E070E00E940F0C882369F0A70116
:1021A000B601CE01DF91CF911F910F91FF90EF907B
:1021B000DF90CF900C94D80B80E0DF91CF911F91EE
:1021C0000F91FF90EF90DF90CF9008959A01FB015F
:1021D000448150E0B9010C94B910DC01FB01BA0153
:1021E00044819181907C903811F050E002C04FEF13
:1021F0005FEF6115710571F0FB0120E030E02417FD
:10220000350751F08191882319F02F5F3F4FF7CFA9
:10221000A90102C040E050E0CD010C94B910CF9369
:10222000DF93FA01309729F440E050E060E070E07D
:102230001DC0DB0111962C91207C4081211112C020
:10224000A42FB0E01196EB012C8130E02A173B0758
:1022500048F4FC01208531852115310559F42AE621
:1022600032E008C050E0BF016F5F7F4FDF91CF9138
:102270000C94B910DC0119963C932E93189780E0CA
:10228000DF91CF9108956F927F928F929F92AF923C
:10229000BF92CF92DF92EF92FF920F931F93CF9353
:1022A000DF93CDB7DEB72A970FB6F894DEBF0FBE27
:1022B000CDBF7C014B013A01CE0101965C018AE061
:1022C000F50111928A95E9F7C5010E945410811118
:1022D00004C029853A85F70154C0CF80D88486018F
:1022E00020E030E040E050E060E070E0C7010E9494
:1022F0000F0C882309F451C0F70120813181211589
:10230000310539F4A60160E070E0C7010E94D80BE6
:1023100044C0F701868197818C0D9D1D44815581B4
:102320004817590750F480859185009711F482EF82
:1023300091E0F701918780872FC03A832983F701C5
:10234000828193819C838B83DE82CD8218861F825B
:102350001A861986A301B401C5010E9454104F8149
:102360005885F70126813781240F351F378326834F
:102370002B813C813383228329853A85C416D50677
:1023800019F43187208709C02115310511F42EE792
:1023900032E0F7013187208780E02A960FB6F89463
:1023A000DEBF0FBECDBFDF91CF911F910F91FF9088
:1023B000EF90DF90CF90BF90AF909F908F907F90E5
:1023C0006F900895FB01668177816115710549F46D
:1023D000FC01208531852115310529F422E932E0FF
:1023E00002C00C944311FC013187208780E00895DE
:1023F0000C944311CF93CFB7F89480918704811147
:1024000027C0EEEAF0E08491EAE9F0E09491E82F49
:10241000F0E0EE0FFF1FEE53FF4FA591B491EC914A
:10242000E92321F461E08AE00E94290A61E08AE060
:102430000E94ED098CB580618CBD8CB580648CBD2B
:1024400061E08DE00E94ED0961E08BE00E94ED0902
:10245000809187048F5F80938704CFBFCF910895C9
:102460000F931F93CF93DF93EC018A818170F80162
:102470009081292F2170821771F0E881F98190FFF6
:1024800004C00680F781E02D03C00480F581E02DB3
:10249000B801CE0109958A8186958170F8019081F5
:1024A00091FB222720F9821771F0E881F98191FFD1
:1024B00004C00284F385E02D03C00084F185E02D83
:1024C000B801CE0109958A8182FB882780F9F8013D
:1024D000908192FB222720F9821771F0E881F9811F
:1024E00092FF04C00684F785E02D03C00484F585BF
:1024F000E02DB801CE010995F8018181811103C059
:102500008281882341F0E881F9810280F381E02D06
:10251000B801CE010995F80180818A83DF91CF91BE
:102520001F910F910895CF93DF93FC01EB01808100
:102530009181892B21F18281882319F1DA012D9172
:102540003C91232BE1F0A881B9819C91A381B0E05B
:10255000A81BB10920813181A20FB31F9C938281F6
:1025600081508283DA018D919C91119701978D930F
:102570009C9388819981019699838883DCCF80E040
:1025800003C08381828381E0DF91CF910895CF934F
:10259000DF93FC01862F8078A9F4283008F04DC025
:1025A000442321F09581973009F447C0EF01A1E061
:1025B000B0E09D85992341F011962596A031B10593
:1025C000C1F73BC080E039C061111CC085E08A9F23
:1025D000E0018B9FD00D1124CE0FDF1F442331F07B
:1025E00081E4888785818F5F858302C081E0888749
:1025F00025E02A9FC0012B9F900D1124E80FF91FA1
:1026000080851BC06770660F660F660F442341F01C
:10261000606485818F5F85838770687F682B03C0C6
:102620002770687B622B25E02A9FC0012B9F900DAD
:102630001124E80FF91F6087862FDF91CF9108954D
:10264000FC0120812EBD9B012150310941F05181B7
:102650000DB407FEFDCF4EB55EBD4193F5CF615081
:102660007109FC01E60FF71F0DB407FEFDCF8EB513
:1026700080830895611102C006960895FC0121E04F
:102680003585631739F02F5F35962031C9F780E023
:1026900090E00895069635E0239F800D911D11244A
:1026A0000895DF92EF92FF920F931F93CF93DF93E2
:1026B000EC01E62EF12C85E0689FB0011124FE01AB
:1026C000E60FF71F8085182F177086FF17C001E0EF
:1026D00085E0D82EFE01D09EE00DF11D11248085ED
:1026E00086958695869587701817F9F00F5F0031EB
:1026F00089F78D81811302C011501D8385E08E9D65
:10270000F0018F9DF00D1124EC0FFD1F108681E06C
:10271000818712862296D783C683DF91CF911F913E
:102720000F91FF90EF90DF900895602FCE010E94EF
:102730005113D0CFFC01613499F49C01255B3F4FCC
:1027400061E0AC014E5F5F4F158666871786548740
:1027500043873596E217F307B9F7FC011582089510
:1027600021E03585631729F02F5F35962031C9F7B1
:102770000895622F0C9451138EBD00000DB407FE16
:10278000FDCF8EB5089580918604882361F09FB7B0
:10279000F8942091860480918404213019F48DBB33
:1027A0009FBF08958FBF0895FC0183EC92E0918351
:1027B00080831582108681E081871286CF01029680
:1027C00097838683128228E023832CE32483DF010E
:1027D0009F01255B3F4F41E01D961C921D971E9661
:1027E0004C931E971F961C921F971C969C938E933A
:1027F0001B971596A217B30779F7EA58FF4F108277
:1028000081E180938C040895CF93C42F0E943A13E2
:10281000009789F0DC01ED91FC911197309759F008
:1028200013969C9180E0891731F020812C1731F0AC
:1028300033968F5FF8CF80E090E001C0CF01CF9159
:1028400008950F931F93CF93DF932115310571F0F6
:10285000E901042F162F0E943A13FC01892B41F045
:102860001283D183C083038380E003C088ED01C05D
:1028700086EDDF91CF911F910F910895CF92DF9256
:10288000FF920F931F93CF93DF93662381F1F62E70
:102890008C016C0186E5C80ED11CC0E0D0E0D601E9
:1028A0008D919D916D010097F1F0DC01ED91FC910E
:1028B0000084F185E02D0995F81215C0AB96CC0F78
:1028C000DD1FC00FD11F88819981DC01ED91FC9142
:1028D0000480F581E02DDF91CF911F910F91FF9042
:1028E000DF90CF9009942196C031D105C1F680E0E8
:1028F000DF91CF911F910F91FF90DF90CF900895BE
:102900002A980895CF93C82F80E591E00E94FE0495
:102910000E9480148C2F0E94BC1380E00E94BC1384
:10292000C82F0E9428050E94C3138C2FCF910895B1
:102930000F931F93CF93DF9300D0CDB7DEB7182F3F
:10294000062F80E591E00E94FE040E948014126030
:1029500019830A8362E070E0CE0101960E94201381
:102960000E9428050E94C3130F900F90DF91CF9112
:102970001F910F9108958F929F92AF92BF92CF9225
:10298000DF92EF92FF920F931F93CF93DF93EC01AF
:10299000D62EC42E59010E943A137C01009709F4E7
:1029A00045C0FC0180819181892B09F441C04C2DE7
:1029B0006D2DCE010E940414F50191838083009750
:1029C000C9F1FC0182818695869590E08031910560
:1029D00014F08FE090E041E050E060E070E04A01E8
:1029E0005B0104C0880C991CAA1CBB1C8A95D2F7F9
:1029F000D501C4010197F801918380836D2D80EE8C
:102A00000E94981488ED0E948214F7019481992302
:102A100031F0CA58DF4F68816260682B02C0682FAE
:102A2000697F88ED0E94981480E005C086ED03C0A0
:102A300087ED01C08BEDDF91CF911F910F91FF903A
:102A4000EF90DF90CF90BF90AF909F908F900895C0
:102A50008F929F92AF92BF92CF92DF92EF92FF92AE
:102A60000F931F93CF93DF93862E942E59010E94CC
:102A70001C096B017C0128E8C20E23E1D21EE11C77
:102A8000F11C00E010E0D0E0C0E098280E941C0992
:102A9000DC01CB018C199D09AE09BF09B7FF2DC020
:102AA000692D80EF0E9498140E941C09DC01CB0163
:102AB0008C199D09AE09BF09B7FF09C088EC0E94B7
:102AC000821487FFF1CF60E888EC0E94981488EFA9
:102AD0000E948214C82FCF70C43019F0CE3051F04C
:102AE0000CC00F5F1F4FA114B10481F20A151B0522
:102AF00069F603C0DF5FD33049F68C2FDF91CF91A9
:102B00001F910F91FF90EF90DF90CF90BF90AF900B
:102B10009F908F9008959F92AF92BF92CF92DF9235
:102B2000EF92FF920F931F93CF93DF937C01D42FEB
:102B3000122F902E00E06C01C60ED11CC60ED11CC7
:102B400086E5C80ED11CA42EB12CABE2AA0EB11C96
:102B5000AA0CBB1CAE0CBF1CF60180819181DC016C
:102B6000ED91FC910280F381E02D292D412F6D2FF5
:102B70000995803EC9F4D1110BC061E088EE0E9436
:102B8000981466E670E080E090E00E944D0914C061
:102B9000F50180819181DC01ED91FC910284F38546
:102BA000E02D612F099508C08D3021F4033008F025
:102BB0003FC014C081113FC0F60180819181DC01CA
:102BC000ED91FC910190F081E02D292D412F6D2F89
:102BD0000995C82F8D3051F4033050F464E670E04D
:102BE00080E090E00E944D090F5FB6CF882311F17D
:102BF000D1110BC061E088EE0E94981466E670E087
:102C000080E090E00E944D0911C0ED2FF0E0BB96EE
:102C1000EE0FFF1FEE0DFF1D80819181DC01ED9114
:102C2000FC910284F385E02D612F09958C2F03C060
:102C30008DE001C080E0DF91CF911F910F91FF9057
:102C4000EF90DF90CF90BF90AF909F9008950F933B
:102C50001F93CF93DF93C82FD62F8A0180E591E091
:102C60000E94FE040E9480148C2F82600E94BC137C
:102C7000CD2FD0E0209721F0BE01C8010E94201383
:102C8000C00FD11F0E9428050E94C313CE01DF91FF
:102C9000CF911F910F9108952F923F924F925F9283
:102CA0006F927F928F929F92AF92BF92CF92DF925C
:102CB000EF92FF920F931F93CF93DF9300D000D03A
:102CC0001F92CDB7DEB77D836C834A016901FB019A
:102CD000F1808FEF8F0D803408F074C00E941C09C2
:102CE0002B013C01F8E84F0EF3E15F1E611C711CE3
:102CF000EC81FD81828180FD02C060E401C060E85A
:102D000088EE0E949814312C8F2D90E09A8389834D
:102D1000C114D10409F448C0E980FA80CE14DF045C
:102D200008F47601EB82A8016E2D80E10E9427163F
:102D30006E2D88E30E949814EC81FD8160816062B1
:102D400080EF0E94981488EC0E94821487FFFBCFCA
:102D500060E888EC0E94981488EF0E9482148F70BB
:102D6000382EA12CB12C212C332009F46BC00E94E9
:102D70001C09DC01CB0184199509A609B709B7FF25
:102D800061C0F6E03F1601F12EE0321609F455C09D
:102D900084E0381209C0FFEFAF1ABF0A8114910412
:102DA00049F1A814B90431F588EF0E94821485FB1B
:102DB000882780F9EC81FD81928180FB90F99283D4
:102DC000832D45C08AED43C088EF0E94821485FBA5
:102DD000882780F991E08927EC81FD81928180FB31
:102DE00090F9928390FD02C060E401C060E888EE33
:102DF0000E94981460E088E30E949814F8016081B2
:102E000080E10E9498146B8188E30E949814EC8101
:102E1000FD816081606280EF0E94981488EC0E94BE
:102E2000821487FFFBCF60E888EC0E94981488EF3B
:102E30000E9482148F70382E97CF239423E02212A1
:102E4000D9CFB2CFCE18DF080E0D1F1D61CF0F9066
:102E50000F900F900F900F90DF91CF911F910F91D6
:102E6000FF90EF90DF90CF90BF90AF909F908F90AA
:102E70007F906F905F904F903F902F9008952F928A
:102E80003F924F925F926F927F928F929F92AF92FA
:102E9000BF92CF92DF92EF92FF920F931F93CF9347
:102EA000DF93CDB7DEB729970FB6F894DEBF0FBE1C
:102EB000CDBF1C016B015B834A835901D9016D9021
:102EC0007C901197FB01F181F9831D921C92DB012B
:102ED00012968C9181FD02C060E101C060E288EE33
:102EE0000E9498148E2D90E0A0E0B0E08C839D832A
:102EF000AE83BF83462C2A813B81D6014C9160E092
:102F0000C1010E942815F82EB6E08B1315C088EF7A
:102F10000E9482148295817091E08927F601928146
:102F200080FB91F9928391FD02C060E101C060E2F3
:102F300088EE0E949814DFCF81116EC088EC0E9449
:102F4000821482FF67C080E30E948214582E90E0B2
:102F50006816790608F4542CD5018D919C91F301E3
:102F6000E81BF90BF987E887F7FF02C01986188676
:102F7000852C912C288539858216930614F4998620
:102F8000888680E591E00E94FE040E94801488E01B
:102F90000E94BC134885598560E070E0C8010E941A
:102FA000732588859985009721F0BC01C8010E948E
:102FB0002013A885B9850A0F1B1F0E9428050E94AF
:102FC000C31364E088EC0E949814F501808191811C
:102FD000880E991E91828082F9815F1618F08614FE
:102FE000970470F088EF0E94821482958170D60158
:102FF00012969C91129780FB91F912969C930CC0AB
:10300000EE2009F478CF6C817D818E819F810E94B2
:103010004D0971CF80EFF82E8F2D29960FB6F894B9
:10302000DEBF0FBECDBFDF91CF911F910F91FF90FB
:10303000EF90DF90CF90BF90AF909F908F907F9058
:103040006F905F904F903F902F9008952F923F92F6
:103050004F925F926F927F928F929F92AF92BF92A8
:10306000CF92DF92EF92FF920F931F93CF93DF9354
:10307000CDB7DEB761970FB6F894DEBF0FBECDBFF8
:103080003C01F42E322E202EC98A4EA05FA0C8A487
:10309000D9A4188A1F861E861D868E01035F1F4FC6
:1030A0009E01215F3F4F0E94BB14811196C039825F
:1030B0002A82EB8289898C83BE82AD8298868F8238
:1030C000AE014F5F5F4F68E080E20E9427162D85BA
:1030D0003E854F2D60E1C3010E942815E82E811125
:1030E00078C0932D9078392EC114D10409F462C0B0
:1030F000EF85F8898281992309F44DC0826082832B
:10310000540122242394A114B10409F458C05C860C
:103110004B864D855E856F857889E12C86019E0101
:10312000255F3F4FC3010E943F17E82EA6E08A1398
:103130000FC00F85188988EF0E94821485FB8827AD
:1031400080F98225F801928180FB91F99283DBCF8F
:1031500081113FC08AA59BA50097A1F0DC01ED91EC
:10316000FC9111970190F081E02DC4018A199B090F
:103170009A8789876B857C859E01275F3F4FA601D3
:10318000CD0109958B859C85A81AB90A84159505EA
:1031900008F0B9CF0FC0816082834D855E858601BE
:1031A0009201BF01C3010E944C16811116C02D85EA
:1031B0003E8511C02D853E85311005C00CC0E11043
:1031C00008C02D853E8560EA4F2DC3010E94281559
:1031D00004C08E2D02C060E8F7CF61960FB6F89458
:1031E000DEBF0FBECDBFDF91CF911F910F91FF903A
:1031F000EF90DF90CF90BF90AF909F908F907F9097
:103200006F905F904F903F902F9008958F929F9274
:10321000AF92BF92CF92EF920F931F931F921F9284
:103220001F930F933F932F934901A12CB12CCC24D2
:10323000C394E12C06E020E80E9426180F900F901E
:103240000F900F900F900F901F910F91EF90CF90D4
:10325000BF90AF909F908F9008958F929F92AF9262
:10326000BF92CF92EF92FF920F931F921F92FF9205
:10327000EF923F932F934901A12CB12C22E0C22E53
:10328000E02E06E020E80E9426180F900F900F9085
:103290000F900F900F900F91FF90EF90CF90BF90F5
:1032A000AF909F908F9008954F925F926F927F9210
:1032B0008F929F92AF92BF92CF92DF92EF92FF9246
:1032C0000F931F93CF93DF93CDB7DEB7C054D109CF
:1032D0000FB6F894DEBF0FBECDBF3C01D62E542EE4
:1032E000422EC02ECE0101965C017C01022F29E006
:1032F00030E0C3010E942D1981111BC08B809C807E
:103300001F93CF92BF92AF921F9280E48F93A12C14
:10331000B12C82E0C82EE42C06E020E8452D6D2D6E
:10332000C3010E9426180F900F900F900F900F90DE
:103330000F90C05CDF4F0FB6F894DEBF0FBECDBF5D
:10334000DF91CF911F910F91FF90EF90DF90CF9081
:10335000BF90AF909F908F907F906F905F904F90B5
:1033600008958F929F92AF92BF92CF92EF920F9358
:10337000CF931F921F921F921F921F921F92812C18
:10338000912CA12CB12CC12CE22E05E020E00E9452
:103390002618C82F6CE271E080E090E00E944D0991
:1033A0000F900F900F900F900F900F908C2FCF9148
:1033B0000F91EF90CF90BF90AF909F908F90089516
:1033C0000F931F93CF93DF938A3F3FEF930711F43F
:1033D00086ED2DC0DC011696ED91FC911797EF2B31
:1033E00009F1122F242FEC011A8740E00E94C71226
:1033F000082F8823C9F0682FCE010E943A13009746
:1034000039F3FC011483202F40E060E0CE010E94DC
:10341000B119182F882351F0602FCE010E949A1302
:10342000812F05C087ED03C084ED01C080E0DF91EE
:10343000CF911F910F9108952F923F924F925F92DB
:103440006F927F928F929F92AF92BF92CF92DF92B4
:10345000EF92FF920F931F93CF93DF93CDB7DEB719
:1034600066970FB6F894DEBF0FBECDBF1B8A38E05B
:103470003C8B3CE33D8B8A3F3FEF930709F464C0EC
:10348000522E342E462E7C01DC011696CD90DC9017
:103490001797CE01439617969C938E9316971A967C
:1034A0002C938E010F5F1F4F22E130E040E060E07F
:1034B000C7010E940619F701D782C6828111A6C0F2
:1034C00089849A846B847C84FD81FE8B2E806701C5
:1034D00036E5C30ED11C560110E0D5018D919C91AB
:1034E0000097F1F1DC01ED91FC910084F185E02D74
:1034F0000995811135C0F50180819181DC01ED9143
:10350000FC910088F189E02D622D0995882341F115
:10351000F50180819181DC01ED91FC910484F585B8
:10352000E02DA301B4010995811110C0F50180813E
:103530009181DC01ED91FC910684F785E02D6E8987
:103540000995811103C00CC086ED60C0052D232DA7
:10355000442D612FC7010E948B15813D09F056C093
:103560001F5FB2E0AB0EB11C103109F0B6CF10E016
:10357000F601808191810097E1F1DC01ED91FC91F0
:103580000084F185E02D0995811133C0F601808119
:103590009181DC01ED91FC910088F189E02D622D93
:1035A00009958823D9F0F60180819181DC01ED91A4
:1035B000FC910484F585E02DA301B40109958111E6
:1035C00018C0F60180819181DC01ED91FC910684A7
:1035D000F785E02D6E89099581110BC0052D232DEE
:1035E000442D612FC7010E948B15982F977F913D25
:1035F00069F41F5FE2E0CE0ED11C103109F0B8CFA4
:10360000252D432D642DC7010E94E01966960FB643
:10361000F894DEBF0FBECDBFDF91CF911F910F9108
:10362000FF90EF90DF90CF90BF90AF909F908F90E2
:103630007F906F905F904F903F902F9008958F9262
:103640009F92AF92BF92CF92EF920F931F921F92D1
:103650001F921F921F921F92812C912CA12CB12C92
:10366000C12CE22E09E020E00E9426180F900F9056
:103670000F900F900F900F900F91EF90CF90BF9001
:10368000AF909F908F9008958F929F92AF92BF922C
:10369000CF92DF92EF920F931F93CF93DF9300D0DF
:1036A00000D0CDB7DEB76C01590148011C821B82E6
:1036B0001A8219828E010F5F1F4F9E012D5F3F4FAF
:1036C0000E94BB14811109C049815A816B817C81A0
:1036D00084019501C6010E943F170F900F900F9033
:1036E0000F90DF91CF911F910F91EF90DF90CF90CE
:1036F000BF90AF909F908F900895AF92BF92CF925E
:10370000DF92EF92FF920F931F93CF938C01199941
:103710000EC088EC0E94821485FF05C0C8010E947B
:10372000680560E201C060E088EC0E949814809116
:10373000F002813039F040F0823079F0833039F591
:10374000C1E00CC083E106C080918C04807F803191
:10375000F1F081E180938C041AC0C0E080918C0468
:10376000807F8031A9F40E941C09DC01CB018853C1
:103770009F4FAF4FBF4F8093880490938904A093CD
:103780008A04B0938B0480E280938C0401C0C0E073
:10379000780186E5E80EF11C6801A6E7CA0ED11C87
:1037A0005701F501819191915F01009739F0DC019A
:1037B000ED91FC910680F781E02D0995AC14BD04D4
:1037C00081F780918C04803409F43FC050F480323A
:1037D00021F18033A1F1813109F082C0F60110821C
:1037E0000AC0813509F458C0803809F46AC08035B0
:1037F00009F076C039C0D7018D919D917D01009768
:1038000039F0DC01ED91FC910480F581E02D099502
:10381000EC14FD0481F782E161C00E941C09009153
:1038200088041091890420918A0430918B04DC0172
:10383000CB01801B910BA20BB30BB7FD51C061E014
:1038400088EE0E94981480E449C088EE0E94821499
:1038500080FD46C088ED0E948214682F686088ED64
:103860000E94981480E53AC088EC0E94821486FF7A
:1038700037C081E580938C040E941C09DC01CB01D8
:103880004496A11DB11D8093880490938904A09350
:103890008A04B0938B0424C00E941C09C090880441
:1038A000D0908904E0908A04F0908B04DC01CB0175
:1038B0008C199D09AE09BF09B7FD12C080E880933D
:1038C0008C042C2F40E060E0C8010E941C1A882361
:1038D00021F0823D29F080EA01C080E980938C04C8
:1038E000CF911F910F91FF90EF90DF90CF90BF90FD
:1038F000AF9008958F929F92AF92BF92CF92EF9226
:103900000F93CF93DF93CDB7DEB7C054D1090FB675
:10391000F894DEBF0FBECDBF5F934F939E012F5F24
:103920003F4F3F932F931F9220E42F9320E8822E46
:10393000912C5B0132E2C32EE12C06E021E840E04D
:10394000FC016681848195810E9426180F900F905A
:103950000F900F900F900F90C05CDF4F0FB6F89450
:10396000DEBF0FBECDBFDF91CF910F91EF90CF9013
:10397000BF90AF909F908F9008958F929F92AF923B
:10398000BF92CF92EF920F93A62EB12C1F921F924F
:103990001F921F921F921F92812C912CC22EE42EF7
:1039A0000AE021E240E0FC016681848195810E9469
:1039B00026180F900F900F900F900F900F900F916F
:1039C000EF90CF90BF90AF909F908F9008958F927F
:1039D0009F92AF92BF92CF92EF920F93A62EB12CEF
:1039E0001F921F921F921F921F921F92812C912C47
:1039F000C12CE42E0BE021E240E0FC0166818481D1
:103A000095810E9426180F900F900F900F900F90A5
:103A10000F900F91EF90CF90BF90AF909F908F90AD
:103A20000895FC018285089581E0693009F080E005
:103A30000895CF93DF93EC018A819B81DC01ED91A6
:103A4000FC910480F581E02D6A8509958A85813491
:103A500039F4EA81FB81EA58FF4F808184608083DA
:103A60001A861B861C861D861E861F86188A80E085
:103A7000DF91CF9108958F929F92AF92BF92CF9294
:103A8000EF920F93A42EB12CB22A1F921F921F9275
:103A90001F921F921F92812C912CC12CE62E01E0C7
:103AA00023E240E0FC016285828193810E94261816
:103AB0000F900F900F900F900F900F900F91EF902D
:103AC000CF90BF90AF909F908F9008958F929F92CC
:103AD000AF92BF92CF92EF920F93A62EB12C1F926E
:103AE0001F923F932F935F934F934A01C12CE12C78
:103AF00000E023EA40E0FC016285828193810E941C
:103B000026180F900F900F900F900F900F900F911D
:103B1000EF90CF90BF90AF909F908F9008958F922D
:103B20009F92AF92BF92CF92EF920F93A42EB12C9F
:103B3000B22A1F921F921F921F921F921F92812CD6
:103B4000912CC12CE62E03E023E240E0FC016285CB
:103B5000828193810E9426180F900F900F900F90F2
:103B60000F900F900F91EF90CF90BF90AF909F90DC
:103B70008F9008952F923F924F925F926F927F9213
:103B80008F929F92AF92BF92CF92DF92EF92FF926D
:103B90000F931F93CF93DF93CDB7DEB7E8970FB6A0
:103BA000F894DEBF0FBECDBFDC011A963C913111F7
:103BB00007C1122F242E362E3C01FC01C280D38077
:103BC000D601ED91FC910190F081E02D60E0C601FD
:103BD00009957C01009709F4F5C0FC01A080B18033
:103BE000A114B10409F4F0C04301F4E08F0E911C5C
:103BF000DC0111969C928E9214961C93FE013196D4
:103C00002F018F0128E030E040E060E0D301129600
:103C10008D919C9113970E940619F70114828111CE
:103C2000D9C08D81893009F0D1C00981D601ED91CB
:103C3000FC910280F381E02D222D41E0632DC6012D
:103C40000995F3018287882309F4C2C0988595837A
:103C5000282F40E060E0828193810E94B119182FE3
:103C6000882389F0D701AD92BC92D601ED91FC91E9
:103C70000480F581E02DD3011A966C91C601099557
:103C8000F3011286ABC0202F013208F020E2D701E9
:103C9000AD92BC9221110BC0940142E0F301628508
:103CA000828193810E942114811197C010C030E05D
:103CB000820140E0D3011A966C911A9712968D9169
:103CC0009C9113970E940619811187C0E5CF1F921E
:103CD0001F925F924F921F9288E08F9388E0882E08
:103CE000912CA12CB12C99E2C92EE12C06E020EAFE
:103CF00040E0F3016285828193810E942618182F8B
:103D00000F900F900F900F900F900F90811166C041
:103D10008B81D3011B968C931B97720100E028E0E6
:103D200030E040E01A966C911A9712968D919C9112
:103D300013970E942D19811150C02B813C8140E0C6
:103D4000F3016285828193810E942D19811145C002
:103D5000298130E0CE0181967C0140E0D3011A96A2
:103D60006C911A9712968D919C9113970E942D1920
:103D7000811133C02E8140E0F301628582819381FD
:103D80000E941F1B811129C001E0D3011B968C9159
:103D9000801740F020E0402F68E0C3010E948F1D93
:103DA0000F5FF3CFD3011296ED91FC911397EA5870
:103DB000FF4F80818460808381E050968C930EC099
:103DC00019ED0CC016ED0AC017ED08C011ED06C0C4
:103DD00014ED04C0F701B182A082182F812FE8965C
:103DE0000FB6F894DEBF0FBECDBFDF91CF911F910C
:103DF0000F91FF90EF90DF90CF90BF90AF909F908A
:103E00008F907F906F905F904F903F902F9008958C
:103E1000CF92DF92FF920F931F93CF93DF9300D047
:103E200000D0CDB7DEB78C01F62E19821A821B8224
:103E30001C8220E0462F61E10E943B1D20E04F2DB7
:103E400060E1C8010E943B1D20E04F2D64E0C801E5
:103E50000E948F1D83E0C82ED12C9E012F5F3F4F03
:103E600044E050E06F2DC8010E94661D8823F1F0E8
:103E700020E04F2D64E1C8010E943B1D20E04F2D42
:103E800060E1C8010E943B1D64E170E080E090E0C9
:103E90000E944D090F900F900F900F90DF91CF91DE
:103EA0001F910F91FF90DF90CF90089589819A81A3
:103EB000AB81BC819D7F83309140A041B105C1F2AF
:103EC00064E670E080E090E00E944D0981E0C81A4D
:103ED000D10819F6CDCFFC018DEC92E0918380835F
:103EE0007383628312861386148615861686178658
:103EF000108A148288E085839CE3968391E09783FF
:103F0000808784E0818761157105B1F0DB01AA5AD1
:103F1000BF4F80E090E02D913D91232B49F48B968B
:103F2000880F991FDB01A80FB91FED93FC9308952B
:103F300001968031910579F70895EF92FF920F93E2
:103F40001F93CF938C01C62F7A01FA018081918152
:103F5000A281B3818130F3E09F07F1E0AF07B105A3
:103F6000D1F060F48115E1E09E07AE07B10571F173
:103F700081309140A140B10571F064C0833021E0EF
:103F8000920720E1A207B105E1F183309340A041FF
:103F9000B105B9F157C080918D04811153C020E063
:103FA0004C2F61E1C8010E943B1D20E04C2F60E1D5
:103FB000C8010E943B1D20E04C2F64E0C8010E9414
:103FC0008F1D81E080938D0481EB3DC020E0462F62
:103FD00061E1C8010E943B1D20E04C2F60E1C80157
:103FE0000E943B1D10928D04F80162856770C770B6
:103FF000660F660F660F6C2B828193810E943E14C0
:1040000021C020E04C2F64E1C8010E943B1D20E04C
:104010004C2F60E1C8010E943B1D64E170E080E02C
:1040200090E00E944D09F8016285F70121812695F3
:10403000217067704C2FF801828193810E941C1AB5
:1040400010928D0480E0CF911F910F91FF90EF901F
:104050000895CF92DF92EF920F931F93CF93DF9348
:10406000CDB7DEB72E970FB6F894DEBF0FBECDBF2B
:104070006C0181E090E09E878D87E12C8E010F5FBF
:104080001F4F9E01235F3F4F41E0F6016285828111
:1040900093810E94441B811151C002E011E089818B
:1040A0008023D1F019861A861B861C869E01275F05
:1040B0003F4F44E050E0612FC6010E94661D811110
:1040C0000BC0AE01475F5F4F612FC6010E949D1F6D
:1040D000813B99F1811132C0000F1F5F1830F9F652
:1040E00011E0F6018385811740F119861A861B8637
:1040F0001C869E01275F3F4F44E050E0612FC601C0
:104100000E94661D811117C089859A8587709170FC
:104110008130914081F48B859C8581609C878B8761
:10412000AE01475F5F4F612FC6010E949D1F813B1B
:1041300021F0811103C01F5FD4CF80E02E960FB60F
:10414000F894DEBF0FBECDBFDF91CF911F910F91CD
:10415000EF90DF90CF9008950F931F93CF93DF934D
:10416000FC012089211102C080E020C0EC010E94E6
:104170001C090C851D852E853F85DC01CB01801B2C
:10418000910BA20BB30BB7FDEFCFCE010E942920FC
:10419000182F0E941C09DC01CB018C599F4FAF4F97
:1041A000BF4F8C879D87AE87BF87812FDF91CF91CF
:1041B0001F910F9108958091C10490E02091C20455
:1041C000821B910908959091C2048091C1049817AF
:1041D00050F4E92FF0E0ED53FB4F208130E09F5F7A
:1041E0009093C20402C02FEF3FEFC9010895E09100
:1041F000C2048091C104E81730F4F0E0ED53FB4FA6
:10420000808190E008958FEF9FEF08950895CF93F8
:10421000DF93EC01E0919A04F0919B043097F1F068
:104220009091C2048091C1049817C0F090E0292FAA
:1042300030E02617370754F4DE01A20FB31F4C916C
:10424000D901AD53BB4F4C939F5FF1CF1092C20485
:104250006093C104CB01DF91CF910994DF91CF919D
:104260000895E0919C04F0919D04309729F01092FC
:10427000A00410929F0409940895CF92DF92EF92C8
:10428000FF920F931F93CF93DF937C01CB018A01A1
:1042900020919E04222389F0EB016B01C40ED51EF0
:1042A000CC15DD0569F06991D701ED91FC91019084
:1042B000F081E02DC7010995F3CF642F0E946F2292
:1042C000C801DF91CF911F910F91FF90EF90DF9088
:1042D000CF900895CF93DF931F92CDB7DEB7698358
:1042E00020919E042223D1F020919F04203240F09F
:1042F00021E030E0FC013383228380E090E015C0B0
:104300008091A004E82FF0E0EF55FB4F9981908356
:104310008F5F8093A00480939F0405C061E0CE016D
:1043200001960E946F2281E090E00F90DF91CF9183
:104330000895FC011382128288EE93E0A0E0B0E0C1
:1043400084839583A683B78383EE92E091838083F1
:1043500008951092C2041092C1041092A004109209
:104360009F040E944D2281E391E20E949C2287E0FB
:1043700091E20C949722CF93C62F0E94A9218C2FF3
:10438000CF910C946B220C94BB2170939D0460938D
:104390009C0408958EE894E00C9499210895FC0102
:1043A000DB01718360837383628315821482578378
:1043B000468312968C911297480F511D5187408762
:1043C00013968C911397480F511D87FD5A9553876B
:1043D000428781E09C91911101C080E00895FC0129
:1043E000A281B3818C91882309F453C0CD01089632
:1043F0009383828318968C911897811108C0468107
:10440000578160817181CF010E94CF2142C01496F3
:104410005C911497852F90E011962C911197322F73
:104420003073303359F419964C91199740734033D7
:1044300029F41A964C911A974F3F69F1207C49F460
:10444000303259F415968C911597589FC00111245C
:104450000CC0203811F482E090E0311106C02481B4
:1044600035812F5F3F4F358324831A962C911A97FD
:10447000820F911D20853185820F931F9187808740
:104480001B962C91820F911D27FD9A959387828709
:1044900002C080E0089581E008951092500581E007
:1044A00080934E0510924D0561E082E10E94290A39
:1044B00061E083E10E94290AE9EBF0E080818E7FD0
:1044C000808380818D7F808380E28093B80085E443
:1044D0008093BC000895880F8093BA00089540919E
:1044E0000505262F30E0240F311D21323105DCF483
:1044F000209150052430C9F4FC0180E090E086173B
:1045000058F4309105052191DC01A95FBA4FA30F42
:10451000B11D2C930196F3CF80910505680F609330
:10452000050580E0089581E0089582E00895909364
:104530004A0580934905089590934C0580934B0557
:10454000089585ED8093BC008091BC0084FDFCCF74
:1045500010925005089585EC8093BC001092500590
:1045600008951F920F920FB60F9211242F933F932D
:104570004F935F936F937F938F939F93AF93BF936B
:10458000EF93FF938091B900887F803609F49EC035
:1045900078F5883209F45DC090F4803109F456C092
:1045A00038F4882309F4F5C0883009F44FC0F5C009
:1045B000883109F44EC0803209F45FC0EEC0803407
:1045C00009F46AC058F4803309F457C0883309F0FD
:1045D000E4C08093E3040E94AB22DFC0803509F47D
:1045E0004FC0883509F45DC0883409F0D6C0D3C007
:1045F000883909F4C4C0A8F4883709F467C038F4CE
:10460000883609F463C0803709F460C0C6C08838B2
:1046100009F4B5C0803909F45FC0803809F0BDC025
:104620005BC0803B09F483C038F4803A09F466C06B
:10463000883A09F47CC0B1C0803C09F4A4C0883C2D
:1046400009F4A1C0883B09F487C0A7C080914F0539
:1046500010C09091280580912705981770F5E0917A
:10466000280581E08E0F80932805F0E0E75DFA4F82
:1046700080818093BB0085EC83C08093E3048BC072
:10468000E091280581E08E0F809328058091BB0082
:10469000F0E0E75DFA4F808390912805809127052F
:1046A0006BC0E091280581E08E0F809328058091F2
:1046B000BB00F0E0E75DFA4F808380914E058111E9
:1046C0006AC081E080934D0584EA5EC083E08093F8
:1046D00050051092E404CFCF8091E404803208F0BA
:1046E0004EC0E091E40481E08E0F8093E404809159
:1046F000BB00F0E0EB51FB4F8083BDCF0E94AB22AB
:104700008091E404803230F4E091E404F0E0EB5175
:10471000FB4F10826091E40470E0E0914905F09154
:104720004A0585EE94E009951092E40436C084E0D1
:10473000809350051092060510920505E0914B05F7
:10474000F0914C05099580910505811105C081E026
:104750008093050510920705E091060581E08E0F14
:1047600080930605F0E0E95FFA4F80818093BB00FB
:104770009091060580910505981708F47CCF85E88F
:104780008093BC000AC085EC8093BC001092500559
:1047900004C01092E3040E94A122FF91EF91BF9107
:1047A000AF919F918F917F916F915F914F913F91C9
:1047B0002F910F900FBE0F901F901895A1E21A2E07
:1047C000AA1BBB1BFD010DC0AA1FBB1FEE1FFF1FB5
:1047D000A217B307E407F50720F0A21BB30BE40B05
:1047E000F50B661F771F881F991F1A9469F760954C
:1047F0007095809590959B01AC01BD01CF01089506
:10480000EE0FFF1F0590F491E02D09940F930830EF
:1048100090F0982F872F762F652F542F432F322F0C
:1048200022270850F4CF220F331F441F551F661F45
:10483000771F881F991F0A95B2F70F91089597FB6C
:1048400010F8169400080F93083098F00850232FA2
:10485000342F452F562F672F782F892F902DF4CF87
:1048600005949795879577956795579547953795CB
:1048700027950A95AAF70F9108950024A7FD0094A3
:104880002A17300540055005600570058005900524
:1048900008950F931F93CF93DF938230910510F407
:1048A00082E090E0E0915305F091540520E030E083
:1048B000A0E0B0E0309719F140815181028113816D
:1048C00048175907C8F08417950769F4109731F015
:1048D00012960C93129713961C9327C000935305BE
:1048E0001093540522C02115310519F042175307C2
:1048F00018F49A01BD01EF01DF01F801DBCF2115AA
:104900003105F9F0281B390B2430310580F48A81F8
:104910009B816115710521F0FB019383828304C0A3
:104920009093540580935305FE01329644C0FE01D6
:10493000E20FF31F81939193225031093983288329
:104940003AC02091510530915205232B41F420911A
:1049500002013091030130935205209351052091BB
:104960000001309101012115310541F42DB73EB709
:104970004091040150910501241B350BE091510534
:10498000F0915205E217F307A0F42E1B3F0B2817F6
:10499000390778F0AC014E5F5F4F2417350748F0B8
:1049A0004E0F5F1F50935205409351058193919391
:1049B00002C0E0E0F0E0CF01DF91CF911F910F91B5
:1049C0000895CF93DF93009709F481C0FC013297DB
:1049D00013821282A0915305B0915405109781F46F
:1049E00020813181820F931F209151053091520512
:1049F0002817390751F5F0935205E093510567C028
:104A0000ED0120E030E0CE17DF0740F44A815B8102
:104A10009E0141155105F1F0EA01F5CFD383C28320
:104A200040815181840F951FC817D90759F4888197
:104A30009981840F951F0296918380838A819B813F
:104A4000938382832115310529F4F0935405E09373
:104A500053053DC0E901FB83EA8349915991C40F95
:104A6000D51FEC17FD0761F480819181840F951F9C
:104A70000296E90199838883828193819B838A834B
:104A8000E0E0F0E012968D919C911397009719F059
:104A9000FD01DC01F7CF8D919C9111979D012E5F57
:104AA0003F4F820F931F20915105309152052817D7
:104AB000390769F4309729F4109254051092530580
:104AC00002C013821282B0935205A0935105DF9168
:104AD000CF910895FB01DC0102C001900D9241507D
:104AE0005040D8F70895DC0101C06D93415050400B
:084AF000E0F70895F894FFCFF0
:104AF800000055052000010100000100000002002F
:104B08000000020000000300000002000000000096
:104B1800000000000000286E6F6E6529004369726E
:104B280063756C617220427566666572204F7665A2
:104B380072666C6F772100504220456E636F64691E
:104B48006E67204572726F7221005374617274002F
:104B58004F534320646964206E6F742073746172CC
:104B6800742E0052657175657374206F6E206E6FB8
:104B78006E2D656D707479207175657565210000FD
:104B8800000000EA02000000001901000000008B8C
:104B9800019300A3001A01BE0095009600C100C64B
:104BA80000CB009A00D300D600FEFF00000F0100E2
:104BB8000000003012E804DF04D404CA04BE04B4C0
:104BC80004A8040000000015077D08B806D206C432
:104BD800065C070D0A006E616E00696E66006F76EE
:104BE800660073747265616D2066756C6C00696F20
:104BF800206572726F7200696E76616C69642064F8
:104C08006174615F73697A6500696E76616C696465
:104C1800206669656C642074797065006D697373CA
:104C2800696E672072657175697265642066696569
:104C38006C64006172726179206D61782073697AA1
:104C4800652065786365656465640063616C6C62A2
:104C580061636B206572726F72006279746573208C
:104C680073697A6520657863656564656400737542
:104C7800626D73672073697A65206368616E676522
:104C88006400696E76616C6964206669656C64208D
:104C980064657363726970746F7200D90C8A0C6CE6
:104CA8000DDE0D6C0E0F11ED10E2110000E6100084
:104CB8000000003A13C7129A1300000000BA1D93AF
:104CC80000191DAC20111D081F9600141D98000026
:104CD8000000006A213D21DB20E320F720062100A7
:00000001FF
